:1000000002007AC00078B10000D8FCD000227A59F2
:1000100079FA78A6D8FED9FADAF622D2B31200031A
:10002000C2B322D2B202002DC2B202002DA2E792C8
:10003000B7A2E692B6A2E592B5A2E492B412001B72
:10004000A2E392B7A2E292B6A2E192B5A2E092B484
:1000500012001B22C2B3743312002874331200281A
:1000600074321200287428120028740C12002874AC
:10007000011200287A0212000E2275817F120054AC
:1000800074801200287450120023745212002374DA
:100090004112002374541200237448120023744147
:1000A000120023744D12002374201200237447128F
:1000B0000023744F1200237445120023744C120065
:1000C0002374C212002874391200237430120023E2
:1000D000743312002374301200237430120023741E
:1000E000381200237431120023743512002380FE6D
:00000001FF
