:030000000203C731
:10000300C0E0C0D0C000C001C002E4F532F533F552
:1000130034F535F5367A20E53AA2E779047837E600
:1000230033F608D9FA79057832E636D4F608D9F9E1
:10003300DAE5D002D001D000D0D0D0E022C0E0C0B9
:10004300D0C000C001C002E4F532F533F534F53514
:10005300F5367A20E53AA2E779047837E633F608ED
:10006300D9FA79057832C0D0E6243320E70224D0C8
:1000730020E30224FDD0D033F608D9EADAD6D00241
:10008300D001D000D0D0D0E022C0E0C0D0C000C0AA
:1000930001C0027A207905C37836E613C0D030E771
:1000A3000224D030E30224FDF618D0D0D9EC790431
:1000B300783AE613F618D9FADADBD002D001D00089
:1000C300D0D0D0E022C0E0C0D0E537253BF537E5FE
:1000D30038353CF538E539353DF539E53A353EF502
:1000E3003AD0D0D0E022C0E0C0D0C3E537953BF58D
:1000F30037E538953CF538E539953DF539E53A95D9
:100103003EF53AD0D0D0E022C0E0C0D0C3E5379569
:100113003BE538953CE539953DE53A953E9200D06F
:10012300D0D0E022C0E0C0D0C3E53B9537E53C9595
:1001330038E53D9539E53E953A9200D0D0D0E0229E
:10014300C0E0C0D0C200C3E53B95377014E53C95D1
:1001530038700EE53D95397008E53E953A7002D248
:1001630000D0D0D0E0221201432000030201272255
:1001730012014320000302010B22C0E0C0F0C0D0F3
:10018300C000C001C002C003E537853BF0A4F8A955
:10019300F0E538853BF0A429F9E435F0FAE5378535
:1001A3003CF0A429F9E5F03AFAE433FBE539853B61
:1001B300F0A42AFAE5F03BFBE538853CF0A42AFAE3
:1001C300E5F03BFBE537853DF0A42AFAE5F03BFB80
:1001D300E53A853BF0A42BFBE539853CF0A42BFBEA
:1001E300E538853DF0A42BFBE537853EF0A42BFBDA
:1001F3008B3A8A3989388837D003D002D001D000AE
:10020300D0D0D0F0D0E022C0E0C0D0C000C001C048
:1002130002C003C0047C20E4F8F9FAFBC3E53733DA
:10022300F537E53833F538E53933F539E53A33F55C
:100233003AE833F8E933F9EA33FAEB33FBC3E895E9
:100243003BE9953CEA953DEB953E4013E8953BF839
:10025300E9953CF9EA953DFAEB953EFB433701DC22
:10026300BBD004D003D002D001D000D0D0D0E02244
:10027300C00078B10000D8FCD00022C000C00179D2
:100283002D78A6D8FED9FADAF6D001D00022D2947E
:10029300120273C29422A2E792B5A2E692B4A2E537
:1002A30092B3A2E492B2120291120273A2E392B544
:1002B300A2E292B4A2E192B3A2E092B2120291221C
:1002C300D292020299C292020299C2947433120228
:1002D300C874331202C874321202C874281202C8D6
:1002E300740C1202C874011202C8C0027A0212020C
:1002F3007ED00222E49360061202C3A380F6224456
:100303004044800202C8C0E0E8C4540F44301202E3
:10031300C3E8540F44301202C3D0E022C0E0E8C463
:10032300540F4430120378E8540F4430120378D04A
:0F033300E02254656D70657261747572653A00F1
:10034200E58954F04401F589758CEA758AE8D2A9E9
:10035200D28C22C28C758CEA758AE8D28C3279DE14
:1003620078A6D8FED9FA438780759852759B007596
:100372009AF4759B1E223099FDC299F59922E49355
:100382006006120378A380F6223098FDC298E599A0
:1003920022783F12038BC0E0C39410D0E04004F6F1
:1003A2000880F0E4F62222D2A2C2A322C0E07900A1
:1003B2007A08E833F892A1D2A3A2A2E933F9C2A340
:1003C200DAF0D0E02275817FD2A01203A912036075
:1003D200120342D2AFC2A078011203AE7880120398
:1003E200AEE95403F53178551203AE8930D2A0122A
:1003F2000452853037853138753900753A0012005C
:100402000385323085333112040F0203D7753B9ACC
:10041200753C01753D00753E0012017D753BFF750F
:100422003C03753D00753E0012020A753B11753C96
:1004320001753D00753E001200E9120003C000A8DC
:100442003212031FD000740D120378740A1203785B
:03045200D8FE22AF
:00000001FF
