:1000000002000375816112013CE582600302006F0A
:10001000780079007A007B007C007D00EC4D601C4C
:1000200088828983E493A3A882A9838A828B83F040
:10003000A3AA82AB831CBCFFE31D80E07582007520
:1000400083007C007D00EC4D600AE4F0A31CBCFF43
:10005000F51D80F27582007583007C007D00EC4DFB
:10006000600AE4F0A31CBCFFF51D80F212013B12F4
:1000700003B680FE1B5B324A0045464D382046726F
:10008000657175656E6379206D6561737572656DF7
:10009000656E74207573696E672054696D65722F83
:1000A000436F756E74657220302E0A46696C653A2E
:1000B0002025730A436F6D70696C65643A2025735F
:1000C0002C2025730A0A00433A5C55736572735CF1
:1000D00032343170725C446F776E6C6F6164735C44
:1000E0004672657145464D38202831292E63004DF2
:1000F000617220313520323032330031333A3433BB
:100100003A35340043617061636974616E636520E0
:10011000286E46293A2000252E3466000D46726569
:1001200071203D20256C7520487A0A0043203D202F
:100130002567206E46001B5B304B002275A70075BB
:1001400097DE7597AD43FF8075EF0275A71075C1F7
:100150002075A70075A90075A900E5A930E7FB7512
:10016000A90375A903E5A930E7FB43A41075E101D4
:1001700075E21075E340759810858E8E758DE68555
:100180008D8B53890F438920D28ED299758200229C
:10019000AA82438E407592B87593FF859294859399
:1001A000957591047B00C3EB9A5012E59130E7FB03
:1001B00053917F108D02800205220B80E97591001A
:1001C00022AA82AB83BA0004BB0001227582F9C067
:1001D00002C0031201907582F91201907582F91222
:1001E00001907582FA120190D003D0021ABAFF0171
:1001F0001B80D25389F0438905C28C22D2A5758217
:1002000028120190C2A522AA828AE0A2E792A1A2A6
:10021000E692A2A2E592A3A2E492A4C0021201FC7B
:10022000758228120190D0028AE0A2E392A1A2E294
:1002300092A2A2E192A3A2E092A40201FCAA82D21D
:10024000A68A821202079000020201C1AA82C2A6F7
:100250008A821202079000050201C1C2A590001413
:100260001201C175823312024C75823312024C7531
:10027000823212024C75822812024C75820C1202D4
:100280004C75820112024C9000140201C1AA82AB8B
:1002900083ACF07402B527047DC080027D808D821E
:1002A000C002C003C00412024C9000051201C1D06C
:1002B00004D003D0027D007E00ED2AFFEE3BF88CD7
:1002C000018F82888389F012056DFF60208F82C0C4
:1002D00002C003C004C005C00612023DD006D0050E
:1002E000D004D003D0020DBD00CF0E80CC3000244E
:1002F0008D028E03C3EA9410EB64809480501575D0
:100300008220C002C00312023DD003D0020ABA000C
:10031000E30B80E02285822A85832B85F02CE4F58F
:100320002DF52EE52824FFFFE52934FFF879007A22
:1003300000C3E99FEA648088F063F08095F050592B
:10034000C002C007C000C001120675AB82D001D048
:1003500000D007D002BB0A028003BB0D1DE52D258E
:100360002AFCE52E352BFDAE2C8C828D838EF0E49D
:10037000120688852D82852E8322E9252AFCEA35FE
:100380002BFDAE2C8C828D838EF0EB12068809B982
:1003900000010A892D8A2E8098E52D252AFAE52E5E
:1003A000352BFBAC2C8A828B838CF0E4120688857B
:1003B0002882852983221201F39001F41201C1746D
:1003C00074C0E07400C0E07480C0E0120641158182
:1003D0001581158174FBC0E07400C0E07480C0E03A
:1003E00074EFC0E07400C0E07480C0E074C7C0E087
:1003F0007400C0E07480C0E07479C0E07400C0E0B4
:100400007480C0E0120641E58124F4F58112025B9C
:10041000752701D20090010475F08012028D758A53
:1004200000758C00752200C28DD28C9003E81201F9
:10043000C1C28CAA227B008B058A047B007A00AEA5
:100440008C7F00780088018F008E07E42AFAEF3B4A
:10045000FBE83CFCE93DFDAE8AE4FF3395E0F8F9AA
:10046000EE2AFAEF3BFBE83CFCE93DFD8A828B83F8
:100470008CF0C002C003C004C005120662AE82AF99
:1004800083A8F0F9C006C007C000C00190800075C5
:10049000F03B7445120589AE82AF83A8F0F9E5817F
:1004A00024FCF581C006C007C000C00190C80075DB
:1004B000F0AF744912073685822385832485F025A1
:1004C000F526E58124FCF581C023C024C025C02683
:1004D00090000075F07A7444120589858223858323
:1004E0002485F025F526E58124FCF581C023C02470
:1004F000C025C0267417C0E07401C0E07480C0E05D
:10050000742FC0E07400C0E07440C0E01206F0E553
:100510008124F6F581752702D20090002F75F040F6
:1005200012028D741CC0E07401C0E07480C0E0123F
:100530000641E58124F9F581C023C024C025C026E9
:10054000742CC0E07401C0E07480C0E0120641E584
:100550008124F9F5817436C0E07401C0E07480C074
:10056000E012064115811581158102041E20F71441
:1005700030F6148883A88220F507E6A883758300E7
:1005800022E280F7E49322E0221208D7BC000302A3
:100590000876EF60FA30D502B2D1E583B4FF0302EA
:1005A000088CE582B4FF0302088C2583400724826F
:1005B000400B020876248314500302088CF582EA6B
:1005C0008DF0A4A8F0EA8EF0A428F8E435F0F9EB59
:1005D0008DF0A428E935F0F9E433CA8FF0A429F9A5
:1005E000EA35F0FAEBF88EF0A429F9EA35F0FAE4EE
:1005F00033FBEC8DF0A429F9EA35F0FAE43BFBE893
:100600008FF0A42AFAEB35F0FBE433CCFD8EF0A496
:100610002AFAEB35F0FBE43CFCED8FF0A42BFBEC6D
:1006200035F0FC20E7031208A40208550212918558
:10063000824E85834F85F05085105190062C020C18
:10064000E4C008858108E50824FBF551E50824FB92
:10065000F8864E08864F08865090062C120CE4D07F
:100660000822FCABF0AA83A982749EC2D1F5821243
:1006700008A402085510980280FBAA998A82C00239
:10068000121291D0028A822220F71030F61188834C
:10069000A88220F507F6A88375830022F280F7F080
:1006A00022AA82AB09AC0AAD0B8B828C838DF0EA57
:1006B0001206880509E4B50902050A228582098522
:1006C000830A85F00B850C4E850D4F850E50850FE6
:1006D000519006A1120CE4AA82AB83AC09AD0AAE1C
:1006E0000B8C828D838EF0E41206888A828B8322A3
:1006F000C008858108E50824F8F551E50824FBF8D1
:10070000860908860A08860BE50824F8F8864E084C
:10071000864F0886509006A1120CE4AA82AB83ACE7
:1007200009AD0AAE0B8C828D838EF0E41206888AA6
:10073000828B83D008221208D730D502B2D1BF00F5
:1007400009BC000302089902088CBC000302087669
:10075000E583B4FF0BE582B4FF0302089902087633
:10076000E582B4FF0302088CC395835007247F40C1
:100770000B020876248014500302088CC0E0E4CCFD
:10078000CBCAF98D118E128F13EF54F0C4F5147586
:1007900083068514F0EB84F582E9C4F9EAC4FAEB28
:1007A000C4FBEC540FC47803D6FC18EBD6FB18EA54
:1007B000D6FA8582F0EDA4A8F0FD8582F0EEA4289B
:1007C000FEE435F0F88582F0EFA428FFE435F0F878
:1007D000E99DF9EA9EFAEB9FFBEC98FCAD11AE1295
:1007E000AF1330E7101582E92DF9EA3EFAEB3FFB33
:1007F000E43CFC80EDC082D58398C3E933F9EA3349
:10080000FAEB33FBEC33FCC3E99DEA9EEB9FEC94DF
:1008100000B3E413F9D002D0E0C44AFAD003D0E028
:10082000C44BFBD004D0E0F5F0540FC44CFCD08294
:10083000158230F40FD3EC13FCEB13FBEA13FAE947
:1008400013F90582E930E70A74012AFAE43BFBE474
:100850003CFC02086DB98003EA13B34010EA24019E
:10086000FAE43BFBE43CFC50047C800582BC000EB7
:10087000BB000BBA0008E4F5F0F583F58222A2D1A3
:10088000E582138CF092F78B838A8222E4F583F55C
:100890008275F080F4A2D11322E4F583F58275F01D
:1008A000C0747F227804EC7011E58224F8500AF5B8
:1008B00082E4C9CACBFCD8EF22EC7820058220E77D
:1008C00013D5820122C3E933F9EA33FAEB33FBECA7
:1008D00033FCD8EA158222AA82AB83A2F73392D1E5
:1008E0006002D2F7F582ACF0E58124F9F8E6FD0864
:1008F000E6FE0886F008E6A2F73392D56002D2F74A
:10090000F583AFF022AA827416C0E07409C0E0C07B
:1009100040C0418A82220547E4B54702054822AA21
:100920008274302AFA24C6500A74072AFA30010366
:100930004302208A82020905E582FAC4540FF58237
:10094000C00212091FD002740F5AF58202091FAAB1
:1009500042AB43AC44AD45AE46754D20EE2EFEEDA8
:10096000235401FF4206EA2AFAEB33FBEC33FCED99
:1009700033FDC3EE95494008EEC39549FE4302019D
:10098000D54DD98A428B438C448D458E4622785E64
:10099000E624D075F00AA4FA785FE624D02AFA7823
:1009A0005D8603BB2D04C3E49AFA754901C3E46470
:1009B000808AF063F08095F05029754D038A0374A6
:1009C000F6254D401C0549E54D142452F8E54D240B
:1009D00052F98704A604772E1BEBFA6004054D80BC
:1009E000DE8B02EA30E70D785386037854A603784D
:1009F00053762E0AE54B600AE54B04FB2549F54981
:100A00008005300C02054978528603E4BB2D0104B1
:100A1000FB70062007033008020549300503020A6F
:100A2000D5300657EB600C75822DC002120905D037
:100A300002801C30070C75822BC002120905D002FF
:100A4000800D30080A758220C002120905D0027894
:100A5000538604BC2E0C758230C002120905D002E8
:100A6000154AAC4A154AC3E5499C4003020B197567
:100A70008230C002120905D00280E7AC4A154AC391
:100A8000E5499C500C758220C002120905D00280F5
:100A9000EA78528604BC2D0C75822DC0021209051D
:100AA000D002801C30070C75822BC002120905D0C1
:100AB00002800D30080A758220C002120905D0029A
:100AC00078538604BC2E52758230C002120905D0BC
:100AD00002154A8044EB600E75822DC00212090592
:100AE000D002154A802030070E75822BC0021209F1
:100AF00005D002154A800F30080C758220C0021202
:100B00000905D002154A78538603BB2E0C75823036
:100B1000C002120905D002154A754D01C20EE54DFD
:100B20002452F88603BB4503020BD6BB2E348A033E
:100B3000C3E464808BF063F08095F0500F758230D1
:100B4000C003120905D0031B8B0280E48B02D20E76
:100B5000E54B7038200C03020BD675822E12090566
:100B60008074300E278A03EB30E71FC3E46480856E
:100B70004BF063F08095F0500C758230C003120981
:100B800005D003154B0B8B0280DD8B02300E0EC39C
:100B9000E46480854BF063F08095F05021E54D24AE
:100BA00052F886038B82C002120905D002300E0E65
:100BB000E54D2452F88603BB2E028002154B154AE0
:100BC000C3E46480854BF063F08095F04003200E11
:100BD00005054D020B1EC3E46480854BF063F08075
:100BE00095F0500A758230120905154B80E83005E2
:100BF0000FAA4A154AEA600875822012090580F199
:100C000022E54B7003300C0D7407254BFAE54AC3FF
:100C10009AF54A8006E54A24FAF54A754D0078525D
:100C20008602BA2B0F20070C785276202008057513
:100C30004D01054A200519AA4AC3E464808AF0637D
:100C4000F08095F0500A758220120905154A80E758
:100C5000C20EE54D2452F88602BA00028069BA45F8
:100C60001F3001027665C3E46480854BF063F08039
:100C700095F0500A758230120905154B80E8D20EA6
:100C8000C3E54D9402E433FA7014EA700EC3E464D1
:100C900080854BF063F08095F04003300E16E54DF3
:100CA0002452F886028A82120905E54D24FD50126D
:100CB000154B800E7402B54D09300C0675822E124C
:100CC0000905054D020C52300519AA4AC3E4648097
:100CD0008AF063F08095F0500A758220120905159C
:100CE0004A80E722858240858341E4F547F548AA9A
:100CF0004EAB4FAC508A828B838CF012056DFD7425
:100D0000012AF54EE43BF54F8C50EDFA70030212C8
:100D10008ABA25028003021282C205C206C207C235
:100D200008C209C20AC20BC20CC202C203C20475C5
:100D30004900754A00754BFFAB4EAC4FAD508B82EE
:100D40008C838DF012056DFAA3AB82AC838B4E8C35
:100D50004F8D50BA25078A8212090580928A06BEF5
:100D60003000402E8A06EE24C6402774FFB54B1390
:100D7000E54A75F00AA4FEEA24D02EF54A70BFD2E7
:100D80000680BBE54B75F00AA4FEEA24D02EF54B95
:100D900080ACBA2E0A74FFB54BA4754B00809F8AB5
:100DA00006BE6100400E8A06EE248540075302DF2E
:100DB000D2018002C201BA20028075BA2303020E5A
:100DC0003FBA2A03020E44BA2B02805FBA2D02807A
:100DD00055BA4202805FBA4303020E89BA44030245
:100DE0000FC4BA4503020FDEBA4603020FDABA4750
:100DF00003020FE2BA4903020FC4BA4C02803BBAA5
:100E00004E03020FE6BA4F03020FCBBA5003020F94
:100E10005DBA5303020EADBA5503020FD0BA5803A0
:100E2000020FD5021010D205020D3ED207020D3E70
:100E3000D208020D3ED20A020D3ED20B020D3ED266
:100E40000C020D3E74FFB54B20300A0BE55114F82F
:100E50008851864A020D3EE55124FEF888518606E7
:100E6000088607188E4A020D3E300A0BE55114F829
:100E70008851864B020D3EE55124FEF888518606C6
:100E8000088607188E4B020D3E300A0AE55114F809
:100E900088518602800FE55124FEF88851860308A8
:100EA0008604188B028A82120905021015E5512466
:100EB000FDF88851860308860408860518188B42B9
:100EC0008C438D448B828C838DF01213C5AB82AC26
:100ED000838B4C74FFB54B03854C4B20051DC3E53C
:100EE0004C954A5016E54AC3954CF54AAB4A154A0B
:100EF000EB600875822012090580F18542828543E6
:100F0000838544F012056DFBFA6029AB4B154BC38A
:100F1000E464808BF063F08095F050188A821209A7
:100F200005AB42AC43AD440BBB00010C8B428C4380
:100F30008D4480C7200503021015C3E54C954A4037
:100F400003021015E54AC3954CF54AAB4A154AEB26
:100F5000700302101575822012090580EEE55124F8
:100F6000FDF88851860308860408860518188B4208
:100F70008C438D44E544FB30E7047A438013EB5403
:100F80006060047A50800AEB30E6047A4980027A85
:100F9000588A82C00212090575823A1209057582C3
:100FA00030120905758278120905D002BA4902800B
:100FB0000BBA50028006854382120938854282129C
:100FC00009388051D20975490A804A754908804517
:100FD00075490A8040754910803BD2028037D203A0
:100FE0008033D204802FE55124FDF8885186030810
:100FF000860408860518188B428C438D448B828C9E
:10100000838DF0E547120688A3E54812068880051F
:101010008A82120905200206200303300470E5517C
:1010200024FCF8885186030886040886050886068D
:101030001818188B428C438D448E45E542E543E5F4
:1010400044E5458B828C838DF0EE1212A674FFB5B9
:101050004B03754B06300427747F5545FB8B46E5E3
:1010600046EB2BFB8B46E54430E70674014546F51D
:1010700046E54624684006749925464002D203306E
:101080000306120C01020CEF12098E020CEFE54967
:101090007003020CEF7B57300A2BE55114F888518E
:1010A000E6FC3395E0FDFEFF8C428D438E448F4578
:1010B00020095EAC427D007E007F008C428D438E15
:1010C000448F45804C300B1FE55124FCF888518635
:1010D000040886050886060886071818188C428DAD
:1010E000438E448F45802AE55124FEF888518604BA
:1010F00008860518ED3395E0FEFF8C428D438E4443
:101100008F4520090CAC42AD437E007F008E448F9A
:1011100045300C43E5424543454445456039740834
:10112000B5490C758230C003120905D003802874BC
:1011300010B54923758230C003120905D003300170
:101140000C758278C003120905D003800A75825895
:10115000C003120905D003300925AC42AD43AE44AB
:10116000E545FF30E717C3E49CFCE49DFDE49EFEEB
:10117000E49FFF8C428D438E448F458002C20975E7
:101180004C00D20D8B00754600C00012094FD000F4
:10119000200D0DE546C4FCE6FD4CF61888038002E0
:1011A000A646054CB20DE54245434544454570D63B
:1011B0008803E54A7003754A0120061A200517E5E1
:1011C0004C04FCC3954A500E758220C003120905D9
:1011D000D003154A80E930090E75822DC00312092B
:1011E00005D003154A8024E54C602030070E758237
:1011F0002BC003120905D003154A800F30080C7567
:101200008220C003120905D003154A20051EAC4AEE
:10121000154AC3E54C9C50273006047C3080027C84
:10122000208C82C003120905D00380E2C3E54C95EF
:101230004A5009E54AC3954CF54A8003754A008B2C
:1012400000AB4C154CEB6022B20D200D0A08E6C431
:10125000540FFB8B4680078603740F5BF54685466B
:1012600082C00012091FD00080D7200503020CEFB6
:10127000AB4A154AEB7003020CEF75822012090588
:1012800080EE8A82120905020CEF85478285488329
:1012900022AA82BA0A0810990280FB75990D10994A
:1012A0000280FB8A9922C0E0F84582458345F070B0
:1012B00009F5F0FBFCFDFE021374E823A2F792E0AF
:1012C000F8A982AA83D2F7ABF07C007E07C374979B
:1012D00098404074FF2EFE740A89F0A4F985F082CC
:1012E000740A8AF0A4FA85F083740A8BF0A4FB7464
:1012F0000529F9EA3582FAEB3583FB740035F0FCF9
:10130000C3EC13FCEB13FBEA13FAE913F908EC70D6
:10131000EF80BAE8C3947FF88B838EF0E4FBFCFD8A
:10132000FEFF08C3E933F9EA33FAE58333F583EBCB
:101330003BD4FBEC3CD4FCED3DD4FDEE3ED4FEEFC3
:101340003FD4FF602D05F074052BD4FBE43CD4FCA6
:10135000E43DD4FDE43ED4FEE43FD4FF758204C3F3
:10136000EF13FFEE13FEED13FDEC13FCEB13FBD5B7
:1013700082EDD8AF7852D0E020E704762B80027659
:101380002D087906E7C4540F4430F608B9060376F1
:101390002E08E7540F4430F60819B902E7764508DD
:1013A000E5F020E704762B8004762DF4040875F030
:1013B0000A844430F608E5F04430F608E4F690007C
:1013C0005275F04022AA82AB83ACF07D007E008A89
:1013D000828B838CF012056DFFA3AA82AB83EF6032
:1013E000070DBD00EA0E80E78D828E83220000008B
:00000001FF
