:03000000020225D4
:0100030032CA
:03000B000201549B
:0100130032BA
:01001B0032B2
:0100230032AA
:03002B000201705F
:10002E00C00078B10000D8FCD00022C000C0017919
:10003E002D78A6D8FED9FADAF6D001D00022D294C5
:10004E0012002EC29422A2E792B5A2E692B4A2E5C5
:10005E0092B3A2E492B212004C12002EA2E392B519
:10006E00A2E292B4A2E192B3A2E092B212004C22AA
:10007E00D292020054C292020054C29474331200FF
:10008E008374331200837432120083742812008337
:10009E00740C1200837401120083C0027A021200E3
:1000AE0039D00222E493600612007EA380F6224429
:1000BE00404480020083C0E0E8C4540F4430120074
:1000CE007EE8540F443012007ED0E02278783A78E1
:1000DE00783A787820784D2C20787878004D6F64B7
:1000EE00653A20436C6F636B20202020204D6F6497
:1000FE00653A20416C61726D205764617920004D24
:10010E006F64653A20416C61726D20576B6E64208E
:10011E00004D6F6E00547565005765640054687528
:10012E0000467269005361740053756E00E5895480
:10013E00F04401F589758CEA758AE875F4EA75F272
:10014E00E8C2A9D28C22B2B73275C80075CDA97596
:10015E00CC9A75CBA975CA9AE4F530F531D2ADD2E9
:10016E00CA22C2CFB2B6C0E0C0D00530E5307002B0
:10017E000531E530B4E807E531B40302800302022D
:10018E001ED200B28CE4F530F531E53FB40715B45C
:10019E000612E535B53722E538B53A1DE501B5034A
:1001AE00180201C4E535B53610E538B5390BE50151
:1001BE00B502060201C4E4D2A9E532B4594A74006C
:1001CE00F532E4E5382401D4F538E4E538B460407E
:1001DE007400F538E4E5352401D4F535E4E535B49D
:1001EE0013047401F535E4E535B412247401B2013B
:1001FE00200102801BE4E53F2401D4F53FE4E53FF6
:10020E00B4080D7401F53FE4E5322401D4F532E46F
:10021E00D0D0D0E032249975817F12013B12015764
:10022E0075E60075E700D2AF120088C0E0740114C5
:10023E001200BFD0E0C083C082C0E09000DA12008E
:10024E00B2D0E0D082D083D200C201753250753365
:10025E0000753400753511753601753701753859CD
:10026E00753901753A01753F017540017541067585
:10027E00420120C519C0027A32120039D00220C5BF
:10028E000D30C5FDB205200508D2CA02029C02023D
:10029E00A4C2CA0202A4208324C0027A32120039F8
:1002AE00D0022083183083FDE4E5422401D4B40447
:1002BE00077401F542E48005F542E48000E542B49E
:1002CE000104E40202E2B40204E402039AB403A2BB
:1002DE00E4020452208024C0027A32120039D00285
:1002EE002080183080FDE4E5352401D4B413077462
:1002FE0001F535E48005F535E48000208424C00244
:10030E007A32120039D0022084183084FDE4E538A8
:10031E002401D4B460077400F538E48005F538E4A0
:10032E008000208624C0027A32120039D002208644
:10033E00183086FDE4E5322401D4B460077400F56C
:10034E0032E48005F532E48000208113C0027A3257
:10035E00120039D0022081073081FDB201800020C9
:10036E008220C0027A32120039D0022082143082EA
:10037E00FDE4E53F2401D4B4080C7401F53FE4021A
:10038E00050BE402050BF53FE402050B208024C0AB
:10039E00027A32120039D0022080183080FDE4E556
:1003AE00362401D4B413077401F536E48005F5360E
:1003BE00E48000208424C0027A32120039D0022058
:1003CE0084183084FDE4E5392401D4B46007740048
:1003DE00F539E48005F539E48000208624C0027AE0
:1003EE0032120039D0022086183086FDE4E533241F
:1003FE0001D4B460077400F533E48005F533E4806E
:10040E0000208113C0027A32120039D002208107F7
:10041E003081FDB2028000208220C0027A321200AA
:10042E0039D0022082143082FDE4E5402401D4B498
:10043E00080C7401F540E4020688E4020688F53FD4
:10044E00E4020688208024C0027A32120039D002DB
:10045E002080183080FDE4E5372401D4B4130774EE
:10046E0001F537E48005F537E48000208424C002CE
:10047E007A32120039D0022084183084FDE4E53A35
:10048E002401D4B460077400F53AE48005F53AE42B
:10049E008000208625C0027A32120039D0022086D2
:1004AE00193086FDE4E5342401D4B460087400F5F7
:1004BE0034E40204C8F534E48000208113C0027ACB
:1004CE0032120039D0022081073081FDB203800044
:1004DE00208220C0027A32120039D00220821430DB
:1004EE0082FDE4E5412401D4B4080C7401F541E425
:1004FE00020803E4020803F53FE4020803C200C049
:10050E00E07401141200BDD0E0C083C082C0E09040
:10051E0000EB1200B2D0E0D082D083C0E07407149A
:10052E001200BFD0E0C000A8321200C4D000C0E05C
:10053E007404141200BFD0E0C000A8381200C4D05A
:10054E0000C0E07401141200BFD0E0C000A8351244
:10055E0000C4D000C0E0740A141200BFD0E0E53F22
:10056E00B4011FC0E0740E141200BFD0E0C083C0EF
:10057E0082C0E090011F1200B2D0E0D082D0830280
:10058E000659B4021FC0E0740E141200BFD0E0C0B2
:10059E0083C082C0E09001231200B2D0E0D082D09E
:1005AE0083020659B4031FC0E0740E141200BFD0AC
:1005BE00E0C083C082C0E09001271200B2D0E0D02C
:1005CE0082D083020659B4041FC0E0740E141200C8
:1005DE00BFD0E0C083C082C0E090012B1200B2D029
:1005EE00E0D082D083020659B4051FC0E0740E1409
:1005FE001200BFD0E0C083C082C0E090012F120075
:10060E00B2D0E0D082D083020659B4061FC0E07487
:10061E000E141200BFD0E0C083C082C0E090013340
:10062E001200B2D0E0D082D083020659B4071CC0AB
:10063E00E0740E141200BFD0E0C083C082C0E09000
:10064E0001371200B2D0E0D082D083200116C0E074
:10065E00740A141200BFD0E0C0E0745012007ED0B5
:10066E00E0020280C0E0740A141200BFD0E0C0E0C5
:10067E00744112007ED0E0020280C0E074011412B8
:10068E0000BDD0E0C083C082C0E09000FB1200B27B
:10069E00D0E0D082D083C0E07407141200BFD0E047
:1006AE00C000A8331200C4D000C0E07404141200BD
:1006BE00BFD0E0C000A8391200C4D000C0E0740161
:1006CE00141200BFD0E0C000A8361200C4D000C083
:1006DE00E0740A141200BFD0E0E540B4011FC0E080
:1006EE00740E141200BFD0E0C083C082C0E090012F
:1006FE001F1200B2D0E0D082D0830207D4B4021F02
:10070E00C0E0740E141200BFD0E0C083C082C0E0FF
:10071E009001231200B2D0E0D082D0830207D4B46D
:10072E00031FC0E0740E141200BFD0E0C083C0825D
:10073E00C0E09001271200B2D0E0D082D083020731
:10074E00D4B4041FC0E0740E141200BFD0E0C083F6
:10075E00C082C0E090012B1200B2D0E0D082D083D4
:10076E000207D4B4051FC0E0740E141200BFD0E00F
:10077E00C083C082C0E090012F1200B2D0E0D082C0
:10078E00D0830207D4B4061FC0E0740E141200BF4B
:10079E00D0E0C083C082C0E09001331200B2D0E03E
:1007AE00D082D0830207D4B4071CC0E0740E14129A
:1007BE0000BFD0E0C083C082C0E09001371200B20B
:1007CE00D0E0D082D083200216C0E0740A1412004A
:1007DE00BFD0E0C0E0745012007ED0E0020280C0B4
:1007EE00E0740A141200BFD0E0C0E0744112007E23
:1007FE00D0E0020280C0E07401141200BDD0E0C04F
:10080E0083C082C0E090010D1200B2D0E0D082D041
:10081E0083C0E07407141200BFD0E0C000A83412E9
:10082E0000C4D000C0E07404141200BFD0E0C000B9
:10083E00A83A1200C4D000C0E07401141200BFD058
:10084E00E0C000A8371200C4D000C0E0740A141231
:10085E0000BFD0E0E541B4011FC0E0740E141200D9
:10086E00BFD0E0C083C082C0E090011F1200B2D0A2
:10087E00E0D082D08302094FB4021FC0E0740E1480
:10088E001200BFD0E0C083C082C0E09001231200EE
:10089E00B2D0E0D082D08302094FB4031FC0E074FF
:1008AE000E141200BFD0E0C083C082C0E0900127BA
:1008BE001200B2D0E0D082D08302094FB4041FC020
:1008CE00E0740E141200BFD0E0C083C082C0E0906E
:1008DE00012B1200B2D0E0D082D08302094FB405B2
:1008EE001FC0E0740E141200BFD0E0C083C082C0DF
:1008FE00E090012F1200B2D0E0D082D08302094FD7
:10090E00B4061FC0E0740E141200BFD0E0C083C046
:10091E0082C0E09001331200B2D0E0D082D08302C8
:10092E00094FB4071CC0E0740E141200BFD0E0C013
:10093E0083C082C0E09001371200B2D0E0D082D0E6
:10094E0083200216C0E0740A141200BFD0E0C0E08B
:10095E00745012007ED0E0020280C0E0740A1412BD
:10096E0000BFD0E0C0E0744112007ED0E0020280F1
:00000001FF
