:1000000002000375815D120151E582600302006FF9
:10001000780079007A007B007C007D00EC4D601C4C
:1000200088828983E493A3A882A9838A828B83F040
:10003000A3AA82AB831CBCFFE31D80E07582007520
:1000400083007C007D00EC4D600AE4F0A31CBCFF43
:10005000F51D80F27582007583007C007D00EC4DFB
:10006000600AE4F0A31CBCFFF51D80F212015012DF
:1000700003C480FE1B5B324A0045464D3820506564
:1000800072696F64206D6561737572656D656E74FC
:100090002061742070696E2050302E312075736994
:1000A0006E672054696D657220302E0A46696C6552
:1000B0003A2025730A436F6D70696C65643A202598
:1000C000732C2025730A0A00433A5C5573657273DA
:1000D0005C32343170725C4F6E65447269766520B3
:1000E0002D205542435C4465736B746F705C4170A6
:1000F00070735C5542435C454C4543203239315C5A
:100100004C616220355C506572696F645C50657249
:10011000696F6445464D382E63004D61722032325E
:1001200020323032330031333A31383A3033000D37
:10013000543D2566206D732020202000252E346636
:100140000043203D202567206E46001B5B304B009E
:100150002275A7007597DE7597AD43FF8075EF0296
:1001600075A71075C12075A70075A90075A900E5D0
:10017000A930E7FB75A90375A903E5A930E7FB439F
:10018000A41075E10175E20075E340759810858E45
:100190008E758DE6858D8B53890F438920D28ED243
:1001A0009975820022AA82438E407592B87593FF9A
:1001B0008592948593957591047B00C3EB9A500BBF
:1001C000E59130E7FB53917F0B80F075910022AAF7
:1001D00082AB83BA0004BB0001227582F9C002C061
:1001E000031201A57582F91201A57582F91201A504
:1001F0007582FA1201A5D003D0021ABAFF011B8042
:10020000D25389F0438901C28C22D2A5758228126B
:1002100001A5C2A522AA828AE0A2E792A1A2E69243
:10022000A2A2E592A3A2E492A4C00212020A7582DD
:10023000281201A5D0028AE0A2E392A1A2E292A232
:10024000A2E192A3A2E092A402020AAA82D2A68A02
:10025000821202159000020201CFAA82C2A68A82EF
:100260001202159000050201CFC2A59000141201E0
:10027000CF75823312025A75823312025A75823256
:1002800012025A75822812025A75820C12025A758D
:10029000820112025A9000140201CFAA82AB83ACF1
:1002A000F07402B523047DC080027D808D82C0027F
:1002B000C003C00412025A9000051201CFD004D02E
:1002C00003D0027D007E00ED2AFFEE3BF88C018F0B
:1002D00082888389F01205FBFF60208F82C002C0F4
:1002E00003C004C005C00612024BD006D005D004DE
:1002F000D003D0020DBD00CF0E80CC3000248D0283
:100300008E03C3EA9410EB648094805015758220AC
:10031000C002C00312024BD003D0020ABA00E30BA2
:1003200080E02285822685832785F028E4F529F55B
:100330002AE52424FFFFE52534FFF879007A00C37D
:10034000E99FEA648088F063F08095F05059C0021C
:10035000C007C000C001120754AB82D001D000D04A
:1003600007D002BB0A028003BB0D1DE5292526FC30
:10037000E52A3527FDAE288C828D838EF0E41207A6
:1003800067852982852A8322E92526FCEA3527FD0F
:10039000AE288C828D838EF0EB12076709B90001BD
:1003A0000A89298A2A8098E5292526FAE52A352707
:1003B000FBAC288A828B838CF0E412076785248249
:1003C000852583221202019001F41201CF7474C0BA
:1003D000E07400C0E07480C0E0120733158115811D
:1003E00015817426C0E07401C0E07480C0E0741A06
:1003F000C0E07401C0E07480C0E074C8C0E0740064
:10040000C0E07480C0E07479C0E07400C0E0748023
:10041000C0E0120733E58124F4F581758A00758CFC
:1004200000C28D7522002081FD3081FDD28C30818B
:1004300009108D0280F8052280F4208109108D02B8
:1004400080F8052280F4C28C8522821206BAAA8224
:10045000AB83ACF0FDC002C003C004C00590000037
:1004600075F0807447120617AA82AB83ACF0FDE5E5
:100470008124FCF581858C82C002C003C004C005C4
:100480001206BAAE82AF83A8F0F9C006C007C0005A
:10049000C00190000075F0807443120617AE82AF61
:1004A00083A8F0F9E58124FCF581D005D004D003C0
:1004B000D002C006C007C000C0018A828B838CF0C6
:1004C000ED1206C5AA82AB83ACF0FDE58124FCF5F4
:1004D00081AE8A7F008E828F83C002C003C004C0B9
:1004E00005120815AE82AF83A8F0F9D005D004D06C
:1004F00003D002C006C007C000C0018A828B838C73
:10050000F0ED1206C5AA82AB83ACF0FDE58124FCB8
:10051000F581C002C003C004C00590F4FC75F03240
:100520007434120617AA82AB83ACF0FDE58124FC7B
:10053000F581C002C003C004C005C002C003C004EE
:10054000C00590000075F07A7444120617AE82AFB1
:1005500083A8F0F9E58124FCF581C006C007C0003E
:10056000C001742FC0E07401C0E07480C0E01207C5
:1005700033E58124F9F58190000075F07A74441216
:100580000617AA82AB83ACF0FDE58124FCF581C09F
:1005900002C003C004C005C002C003C004C005748B
:1005A0003CC0E07401C0E07480C0E0742BC0E07413
:1005B00000C0E07440C0E01207CFE58124F6F58169
:1005C000752302D20090002B75F04012029B7441FB
:1005D000C0E07401C0E07480C0E0120733E58124FC
:1005E000F9F581744BC0E07401C0E07480C0E01282
:1005F000073315811581158102041B20F71430F68D
:10060000148883A88220F507E6A88375830022E278
:1006100080F7E49322E0221208A4BC0003020843FE
:10062000EF60FA30D502B2D1E583B4FF0302085976
:10063000E582B4FF03020859258340072482400B5A
:100640000208432483145003020859F582EA8DF00E
:10065000A4A8F0EA8EF0A428F8E435F0F9EB8DF0C8
:10066000A428E935F0F9E433CA8FF0A429F9EA3572
:10067000F0FAEBF88EF0A429F9EA35F0FAE433FB4E
:10068000EC8DF0A429F9EA35F0FAE43BFBE88FF0B1
:10069000A42AFAEB35F0FBE433CCFD8EF0A42AFA61
:1006A000EB35F0FBE43CFCED8FF0A42BFBEC35F0DC
:1006B000FC20E703120871020822E4AC82FBFAF97D
:1006C00074860208DB1208A47900E583B5820280F3
:1006D0000D50031208E5E583C395821208FFE5D0AB
:1006E000C465D020E117EA2DFAEB3EFBEC3FFC504D
:1006F0000974011208FFEC4480FC020822C3EA9D41
:10070000FAEB9EFBEC9FFC500FC3E499F9E49AFAD4
:10071000E49BFBE49CFCB2D1120871020822021295
:10072000CE85824A85834B85F04C85104D90071EFF
:10073000020D21C008858108E50824FBF54DE50878
:1007400024FBF8864A08864B08864C90071E120D3B
:1007500021D0082210980280FBAA998A82C0021236
:1007600012CED0028A822220F71030F6118883A898
:100770008220F507F6A88375830022F280F7F02225
:10078000AA82AB09AC0AAD0B8B828C838DF0EA1286
:1007900007670509E4B50902050A228582098583F0
:1007A0000A85F00B850C4A850D4B850E4C850F4D47
:1007B000900780120D21AA82AB83AC09AD0AAE0B63
:1007C0008C828D838EF0E41207678A828B8322C02D
:1007D00008858108E50824F8F54DE50824FBF8862E
:1007E0000908860A08860BE50824F8F8864A088670
:1007F0004B08864C900780120D21AA82AB83AC096E
:10080000AD0AAE0B8C828D838EF0E41207678A826C
:100810008B83D00822AC83AB827A007900748E027D
:1008200012ECB98003EA13B34010EA2401FAE43B66
:10083000FBE43CFC50047C800582BC000EBB000B3A
:10084000BA0008E4F5F0F583F58222A2D1E582131F
:100850008CF092F78B838A8222E4F583F58275F01F
:1008600080F4A2D11322E4F583F58275F0C0747F81
:10087000227804EC7011E58224F8500AF582E4C96C
:10088000CACBFCD8EF22EC7820058220E713D58272
:100890000122C3E933F9EA33FAEB33FBEC33FCD83A
:1008A000EA158222AA82AB83A2F73392D16002D2E8
:1008B000F7F582ACF0E58124F9F8E6FD08E6FE08DC
:1008C00086F008E6A2F73392D56002D2F7F583AF3F
:1008D000F022FCABF0AA83A982749EC2D1F58212E9
:1008E0000871020822E582C583F582A2D133A2D520
:1008F00092D11392D5ECCFFCEBCEFBEACDFA22607D
:1009000040F82582500274FFF582E824F8501ECC8E
:10091000CBCAF9E4CC24F85014CBCAF9E4CB24F8C0
:10092000500BCAF9E4CA24F8500379002224086065
:1009300010F8C3EC13FCEB13FBEA13FAE913F9D834
:10094000F122AA827453C0E07409C0E0C03CC03DEB
:100950008A82220543E4B54302054422AA82743008
:100960002AFA24C6500A74072AFA300103430220E7
:100970008A82020942E582FAC4540FF582C002124B
:10098000095CD002740F5AF58202095CAA3EAB3FA3
:10099000AC40AD41AE42754920EE2EFEED23540130
:1009A000FF4206EA2AFAEB33FBEC33FCED33FDC3DE
:1009B000EE95454008EEC39545FE430201D549D961
:1009C0008A3E8B3F8C408D418E4222785AE624D05D
:1009D00075F00AA4FA785BE624D02AFA78598603DF
:1009E000BB2D04C3E49AFA754501C3E464808AF020
:1009F00063F08095F050297549038A0374F6254900
:100A0000401C0545E54914244EF8E549244EF98774
:100A100004A604772E1BEBFA6004054980DE8B02E6
:100A2000EA30E70D784F86037850A603784F762E8C
:100A30000AE547600AE54704FB2545F54580053092
:100A40000C020545784E8603E4BB2D0104FB7006BD
:100A50002007033008020545300503020B1230065B
:100A600057EB600C75822DC002120942D002801C27
:100A700030070C75822BC002120942D002800D3063
:100A8000080A758220C002120942D002784F8604FB
:100A9000BC2E0C758230C002120942D0021546AC41
:100AA000461546C3E5459C4003020B56758230C08F
:100AB00002120942D00280E7AC461546C3E5459CC8
:100AC000500C758220C002120942D00280EA784E92
:100AD0008604BC2D0C75822DC002120942D0028002
:100AE0001C30070C75822BC002120942D002800D07
:100AF00030080A758220C002120942D002784F865F
:100B000004BC2E52758230C002120942D002154632
:100B10008044EB600E75822DC002120942D002158E
:100B200046802030070E75822BC002120942D00287
:100B30001546800F30080C758220C002120942D081
:100B4000021546784F8603BB2E0C758230C0021208
:100B50000942D0021546754901C20EE549244EF8F6
:100B60008603BB4503020C13BB2E348A03C3E46423
:100B7000808BF063F08095F0500F758230C00312C7
:100B80000942D0031B8B0280E48B02D20EE5477032
:100B900038200C03020C1375822E12094280743027
:100BA0000E278A03EB30E71FC3E464808547F063B8
:100BB000F08095F0500C758230C003120942D003CA
:100BC00015470B8B0280DD8B02300E0EC3E4648070
:100BD0008547F063F08095F05021E549244EF88672
:100BE000038B82C002120942D002300E0EE5492466
:100BF0004EF88603BB2E02800215471546C3E464F7
:100C0000808547F063F08095F04003200E0505498C
:100C1000020B5BC3E464808547F063F08095F0507D
:100C20000A758230120942154780E830050FAA463E
:100C30001546EA600875822012094280F122E547D4
:100C40007003300C0D74072547FAE546C39AF54644
:100C50008006E54624FAF546754900784E8602BAC4
:100C60002B0F20070C784E762020080575490105CA
:100C700046200519AA46C3E464808AF063F0809593
:100C8000F0500A758220120942154680E7C20EE52F
:100C900049244EF88602BA00028069BA451F300125
:100CA000027665C3E464808547F063F08095F05078
:100CB0000A758230120942154780E8D20EC3E54911
:100CC0009402E433FA7014EA700EC3E4648085473A
:100CD000F063F08095F04003300E16E549244EF89D
:100CE00086028A82120942E54924FD501215478086
:100CF0000E7402B54909300C0675822E12094205A0
:100D000049020C8F300519AA46C3E464808AF06357
:100D1000F08095F0500A758220120942154680E74E
:100D20002285823C85833DE4F543F544AA4AAB4BDA
:100D3000AC4C8A828B838CF01205FBFD74012AF582
:100D40004AE43BF54B8C4CEDFA70030212C7BA250E
:100D50000280030212BFC205C206C207C208C2094E
:100D6000C20AC20BC20CC202C203C204754500759E
:100D700046007547FFAB4AAC4BAD4C8B828C838DE4
:100D8000F01205FBFAA3AB82AC838B4A8C4B8D4CE3
:100D9000BA25078A8212094280928A06BE30004034
:100DA0002E8A06EE24C6402774FFB54713E5467524
:100DB000F00AA4FEEA24D02EF54670BFD20680BB0E
:100DC000E54775F00AA4FEEA24D02EF54780ACBAB8
:100DD0002E0A74FFB547A4754700809F8A06BE613E
:100DE00000400E8A06EE248540075302DFD20180C0
:100DF00002C201BA20028075BA2303020E7CBA2A0D
:100E000003020E81BA2B02805FBA2D028055BA42CE
:100E100002805FBA4303020EC6BA4403021001BA4D
:100E2000450302101BBA4603021017BA470302100B
:100E30001FBA4903021001BA4C02803BBA4E0302AA
:100E40001023BA4F03021008BA5003020F9ABA5384
:100E500003020EEABA550302100DBA58030210122B
:100E600002104DD205020D7BD207020D7BD2080283
:100E70000D7BD20A020D7BD20B020D7BD20C020D30
:100E80007B74FFB54720300A0BE54D14F8884D867A
:100E900046020D7BE54D24FEF8884D860608860740
:100EA000188E46020D7B300A0BE54D14F8884D86EE
:100EB00047020D7BE54D24FEF8884D86060886071F
:100EC000188E47020D7B300A0AE54D14F8884D86CE
:100ED00002800FE54D24FEF8884D8603088604182D
:100EE0008B028A82120942021052E54D24FDF888D5
:100EF0004D860308860408860518188B3E8C3F8DA6
:100F0000408B828C838DF012142FAB82AC838B4884
:100F100074FFB5470385484720051DC3E54895463E
:100F20005016E546C39548F546AB461546EB6008B6
:100F300075822012094280F1853E82853F8385407B
:100F4000F01205FBFBFA6029AB471547C3E4648048
:100F50008BF063F08095F050188A82120942AB3E04
:100F6000AC3FAD400BBB00010C8B3E8C3F8D4080F5
:100F7000C7200503021052C3E548954640030210FE
:100F800052E546C39548F546AB461546EB7003025D
:100F9000105275822012094280EEE54D24FDF8883A
:100FA0004D860308860408860518188B3E8C3F8DF5
:100FB00040E540FB30E7047A438013EB5460600463
:100FC0007A50800AEB30E6047A4980027A588A82A5
:100FD000C00212094275823A120942758230120922
:100FE00042758278120942D002BA4902800BBA5087
:100FF000028006853F82120975853E82120975803E
:1010000051D20975450A804A754508804575450ADB
:101010008040754510803BD2028037D2038033D2A6
:1010200004802FE54D24FDF8884D860308860408CA
:10103000860518188B3E8C3F8D408B828C838DF0FB
:10104000E543120767A3E54412076780058A821209
:101050000942200206200303300470E54D24FCF809
:10106000884D860308860408860508860618181821
:101070008B3E8C3F8D408E41E53EE53FE540E541AE
:101080008B828C838DF0EE12131074FFB5470375BD
:101090004706300427747F5541FB8B42E542EB2B1A
:1010A000FB8B42E54030E70674014542F542E542DC
:1010B00024684006749925424002D2033003061288
:1010C0000C3E020D2C1209CB020D2CE545700302DB
:1010D0000D2C7B53300A2BE54D14F8884DE6FC337C
:1010E00095E0FDFEFF8C3E8D3F8E408F4120095ED6
:1010F000AC3E7D007E007F008C3E8D3F8E408F4158
:10110000804C300B1FE54D24FCF8884D8604088682
:10111000050886060886071818188C3E8D3F8E40F5
:101120008F41802AE54D24FEF8884D860408860507
:1011300018ED3395E0FEFF8C3E8D3F8E408F4120B1
:10114000090CAC3EAD3F7E007F008E408F41300CDD
:1011500043E53E453F4540454160397408B5450C7F
:10116000758230C003120942D00380287410B5453F
:1011700023758230C003120942D00330010C7582FE
:1011800078C003120942D003800A758258C0031246
:101190000942D003300925AC3EAD3FAE40E541FFEA
:1011A00030E717C3E49CFCE49DFDE49EFEE49FFF52
:1011B0008C3E8D3F8E408F418002C209754800D21F
:1011C0000D8B00754200C00012098CD000200D0D5F
:1011D000E542C4FCE6FD4CF61888038002A64205F1
:1011E00048B20DE53E453F4540454170D68803E590
:1011F00046700375460120061A200517E54804FCD1
:10120000C39546500E758220C003120942D00315C3
:101210004680E930090E75822DC003120942D003C1
:1012200015468024E548602030070E75822BC003E8
:10123000120942D0031546800F30080C758220C079
:1012400003120942D003154620051EAC461546C3BD
:10125000E5489C50273006047C3080027C208C823C
:10126000C003120942D00380E2C3E5489546500905
:10127000E546C39548F54680037546008B00AB48AC
:101280001548EB6022B20D200D0A08E6C4540FFB8E
:101290008B4280078603740F5BF542854282C00053
:1012A00012095CD00080D7200503020D2CAB461537
:1012B00046EB7003020D2C75822012094280EE8AE3
:1012C00082120942020D2C85438285448322AA8220
:1012D000BA0A0810990280FB75990D10990280FBDB
:1012E0008A9922FCABF0AA83A982749EF582C2D1AE
:1012F000EC30E716D2D1E9F42401F9EAF43400FA2B
:10130000EBF43400FBECF43400FC12087102082208
:10131000C0E0F84582458345F07009F5F0FBFCFD1F
:10132000FE0213DEE823A2F792E0F8A982AA83D294
:10133000F7ABF07C007E07C3749798404074FF2E93
:10134000FE740A89F0A4F985F082740A8AF0A4FA7E
:1013500085F083740A8BF0A4FB740529F9EA3582C1
:10136000FAEB3583FB740035F0FCC3EC13FCEB1394
:10137000FBEA13FAE913F908EC70EF80BAE8C394BA
:101380007FF88B838EF0E4FBFCFDFEFF08C3E9339E
:10139000F9EA33FAE58333F583EB3BD4FBEC3CD439
:1013A000FCED3DD4FDEE3ED4FEEF3FD4FF602D05B5
:1013B000F074052BD4FBE43CD4FCE43DD4FDE43EC6
:1013C000D4FEE43FD4FF758204C3EF13FFEE13FE97
:1013D000ED13FDEC13FCEB13FBD582EDD8AF784E8B
:1013E000D0E020E704762B8002762D087906E7C44A
:1013F000540F4430F608B90603762E08E7540F441C
:1014000030F60819B902E7764508E5F020E70476DA
:101410002B8004762DF4040875F00A844430F60815
:10142000E5F04430F608E4F690004E75F04022AA4C
:1014300082AB83ACF07D007E008A828B838CF012BD
:1014400005FBFFA3AA82AB83EF60070DBD00EA0E88
:1014500080E78D828E8322000000000000000000E3
:00000001FF
